{
  "_format": "hh-sol-artifact-1",
  "contractName": "EventManager",
  "sourceName": "contracts/EventManager.sol",
  "abi": [
    {
      "inputs": [
        {
          "internalType": "string",
          "name": "name",
          "type": "string"
        },
        {
          "internalType": "string",
          "name": "location",
          "type": "string"
        },
        {
          "internalType": "uint256",
          "name": "timestamp",
          "type": "uint256"
        }
      ],
      "name": "createEvent",
      "outputs": [],
      "stateMutability": "nonpayable",
      "type": "function"
    },
    {
      "inputs": [
        {
          "internalType": "uint256",
          "name": "",
          "type": "uint256"
        }
      ],
      "name": "events",
      "outputs": [
        {
          "internalType": "address",
          "name": "creator",
          "type": "address"
        },
        {
          "internalType": "string",
          "name": "name",
          "type": "string"
        },
        {
          "internalType": "string",
          "name": "location",
          "type": "string"
        },
        {
          "internalType": "uint256",
          "name": "timestamp",
          "type": "uint256"
        }
      ],
      "stateMutability": "view",
      "type": "function"
    },
    {
      "inputs": [],
      "name": "getAllEvents",
      "outputs": [
        {
          "components": [
            {
              "internalType": "address",
              "name": "creator",
              "type": "address"
            },
            {
              "internalType": "string",
              "name": "name",
              "type": "string"
            },
            {
              "internalType": "string",
              "name": "location",
              "type": "string"
            },
            {
              "internalType": "uint256",
              "name": "timestamp",
              "type": "uint256"
            }
          ],
          "internalType": "struct EventManager.Event[]",
          "name": "",
          "type": "tuple[]"
        }
      ],
      "stateMutability": "view",
      "type": "function"
    }
  ],
  "bytecode": "0x6080604052348015600f57600080fd5b50610d208061001f6000396000f3fe608060405234801561001057600080fd5b50600436106100415760003560e01c80630b791430146100465780635555fe1714610079578063c27a500d14610095575b600080fd5b610060600480360381019061005b9190610536565b6100b3565b6040516100709493929190610643565b60405180910390f35b610093600480360381019061008e91906107cb565b610223565b005b61009d610309565b6040516100aa91906109ea565b60405180910390f35b600081815481106100c357600080fd5b90600052602060002090600402016000915090508060000160009054906101000a900473ffffffffffffffffffffffffffffffffffffffff169080600101805461010c90610a3b565b80601f016020809104026020016040519081016040528092919081815260200182805461013890610a3b565b80156101855780601f1061015a57610100808354040283529160200191610185565b820191906000526020600020905b81548152906001019060200180831161016857829003601f168201915b50505050509080600201805461019a90610a3b565b80601f01602080910402602001604051908101604052809291908181526020018280546101c690610a3b565b80156102135780601f106101e857610100808354040283529160200191610213565b820191906000526020600020905b8154815290600101906020018083116101f657829003601f168201915b5050505050908060030154905084565b600060405180608001604052803373ffffffffffffffffffffffffffffffffffffffff16815260200185815260200184815260200183815250908060018154018082558091505060019003906000526020600020906004020160009091909190915060008201518160000160006101000a81548173ffffffffffffffffffffffffffffffffffffffff021916908373ffffffffffffffffffffffffffffffffffffffff16021790555060208201518160010190816102e19190610c18565b5060408201518160020190816102f79190610c18565b50606082015181600301555050505050565b60606000805480602002602001604051908101604052809291908181526020016000905b828210156104e357838290600052602060002090600402016040518060800160405290816000820160009054906101000a900473ffffffffffffffffffffffffffffffffffffffff1673ffffffffffffffffffffffffffffffffffffffff1673ffffffffffffffffffffffffffffffffffffffff1681526020016001820180546103b690610a3b565b80601f01602080910402602001604051908101604052809291908181526020018280546103e290610a3b565b801561042f5780601f106104045761010080835404028352916020019161042f565b820191906000526020600020905b81548152906001019060200180831161041257829003601f168201915b5050505050815260200160028201805461044890610a3b565b80601f016020809104026020016040519081016040528092919081815260200182805461047490610a3b565b80156104c15780601f10610496576101008083540402835291602001916104c1565b820191906000526020600020905b8154815290600101906020018083116104a457829003601f168201915b505050505081526020016003820154815250508152602001906001019061032d565b50505050905090565b6000604051905090565b600080fd5b600080fd5b6000819050919050565b61051381610500565b811461051e57600080fd5b50565b6000813590506105308161050a565b92915050565b60006020828403121561054c5761054b6104f6565b5b600061055a84828501610521565b91505092915050565b600073ffffffffffffffffffffffffffffffffffffffff82169050919050565b600061058e82610563565b9050919050565b61059e81610583565b82525050565b600081519050919050565b600082825260208201905092915050565b60005b838110156105de5780820151818401526020810190506105c3565b60008484015250505050565b6000601f19601f8301169050919050565b6000610606826105a4565b61061081856105af565b93506106208185602086016105c0565b610629816105ea565b840191505092915050565b61063d81610500565b82525050565b60006080820190506106586000830187610595565b818103602083015261066a81866105fb565b9050818103604083015261067e81856105fb565b905061068d6060830184610634565b95945050505050565b600080fd5b600080fd5b7f4e487b7100000000000000000000000000000000000000000000000000000000600052604160045260246000fd5b6106d8826105ea565b810181811067ffffffffffffffff821117156106f7576106f66106a0565b5b80604052505050565b600061070a6104ec565b905061071682826106cf565b919050565b600067ffffffffffffffff821115610736576107356106a0565b5b61073f826105ea565b9050602081019050919050565b82818337600083830152505050565b600061076e6107698461071b565b610700565b90508281526020810184848401111561078a5761078961069b565b5b61079584828561074c565b509392505050565b600082601f8301126107b2576107b1610696565b5b81356107c284826020860161075b565b91505092915050565b6000806000606084860312156107e4576107e36104f6565b5b600084013567ffffffffffffffff811115610802576108016104fb565b5b61080e8682870161079d565b935050602084013567ffffffffffffffff81111561082f5761082e6104fb565b5b61083b8682870161079d565b925050604061084c86828701610521565b9150509250925092565b600081519050919050565b600082825260208201905092915050565b6000819050602082019050919050565b61088b81610583565b82525050565b600082825260208201905092915050565b60006108ad826105a4565b6108b78185610891565b93506108c78185602086016105c0565b6108d0816105ea565b840191505092915050565b6108e481610500565b82525050565b60006080830160008301516109026000860182610882565b506020830151848203602086015261091a82826108a2565b9150506040830151848203604086015261093482826108a2565b915050606083015161094960608601826108db565b508091505092915050565b600061096083836108ea565b905092915050565b6000602082019050919050565b600061098082610856565b61098a8185610861565b93508360208202850161099c85610872565b8060005b858110156109d857848403895281516109b98582610954565b94506109c483610968565b925060208a019950506001810190506109a0565b50829750879550505050505092915050565b60006020820190508181036000830152610a048184610975565b905092915050565b7f4e487b7100000000000000000000000000000000000000000000000000000000600052602260045260246000fd5b60006002820490506001821680610a5357607f821691505b602082108103610a6657610a65610a0c565b5b50919050565b60008190508160005260206000209050919050565b60006020601f8301049050919050565b600082821b905092915050565b600060088302610ace7fffffffffffffffffffffffffffffffffffffffffffffffffffffffffffffffff82610a91565b610ad88683610a91565b95508019841693508086168417925050509392505050565b6000819050919050565b6000610b15610b10610b0b84610500565b610af0565b610500565b9050919050565b6000819050919050565b610b2f83610afa565b610b43610b3b82610b1c565b848454610a9e565b825550505050565b600090565b610b58610b4b565b610b63818484610b26565b505050565b5b81811015610b8757610b7c600082610b50565b600181019050610b69565b5050565b601f821115610bcc57610b9d81610a6c565b610ba684610a81565b81016020851015610bb5578190505b610bc9610bc185610a81565b830182610b68565b50505b505050565b600082821c905092915050565b6000610bef60001984600802610bd1565b1980831691505092915050565b6000610c088383610bde565b9150826002028217905092915050565b610c21826105a4565b67ffffffffffffffff811115610c3a57610c396106a0565b5b610c448254610a3b565b610c4f828285610b8b565b600060209050601f831160018114610c825760008415610c70578287015190505b610c7a8582610bfc565b865550610ce2565b601f198416610c9086610a6c565b60005b82811015610cb857848901518255600182019150602085019450602081019050610c93565b86831015610cd55784890151610cd1601f891682610bde565b8355505b6001600288020188555050505b50505050505056fea2646970667358221220ef1389386b57f49551ce3f5fc7c0322a558ead1a3500fce4cf912818feaa024764736f6c634300081c0033",
  "linkReferences": {},
  "deployedLinkReferences": {}
}